8=FIX.4.4|9=76|35=A|34=1|49=CLIENT1|52=20250312-03:19:26.458|56=EXECUTOR|98=0|108=30|141=Y|10=148|