8=FIX.4.4|9=74|35=A|34=1|49=CLIENT1|52=20250317-22:07:29.746|56=SIMPLE|98=0|108=30|141=Y|10=243|