8=FIX.4.4|9=74|35=A|34=1|49=SIMPLE|52=20250312-03:34:40.249|56=CLIENT1|98=0|108=30|141=Y|10=228|